2601100003161152516172601107912080  00203032FLST25711511     12     8000100A             300    Z         CZY                                 25711511          
2601100003260005516172601107912095  01602022FLST28226797     11     8002100A             300    Z         ZZ                                  28226797          
2601100003260006516172601100000000  0160202 FLST28226798     11     8006200A             300    Z         ZZ                                  28226798          
