260110   3161152          Abner               Hailey                F 040319991251617E011002201645ZZUSZZZ00000000004003A0000003ZZN00326N      25711511  FLST25711511  221111                                                                    
260068   452010211111     Absher              Sandra      Nichole   F 030520110251617E021001201676AKZZW0106172017010012A0000003BEY00326Y      28187414  FLST28187414  332222                                                                    
260068   452010311111     Test03              Test03      Test03    F 030520110251617E010401201776AKZZW0105012017000000A000000ZBEY00026Y      28187415  FLST28187415  332222                                                                    
260068   452010311111     Test03              Test03      Test03    F 030520110251617E010502201776AKZZW0106012017000000A000000ZBEY00026Y      28187415  FLST28187415  332222                                                                    
