00011025711511  F15162601107912075001  1415S0000000000AB    F12     8000100A     B   CGC            401         FAAABCD A1500000150110120170901201711012017BB                                                             FLST25711511          
00011025711511  F15162601107912080002  1415U0000000000AB    F12     8000100A     D   CGA            401         FAAABCD A0000000150110120170901201711012017BB                                                             FLST25711511          
00011025711511  F15162601107912090003  1415C0000000000AB    F12     8000100A     D   CGA            401         FAAABCD A0000000150110120170901201711012017BB                                                             FLST25711511          
00011025711511  F15162601107912095004  1415I0000000000AB    F12     8000100A     D   CGB            401         FAAABCD A0000000150110120170901201711012017BB                                                             FLST25711511          
