05201N00X2024682016000000012349876543210000011111BPA            2017121820171220044445555                    
05201N00X2024682016000000012349876543210000011111DECA           2017121820171220044445555                    
05201N00X2024682016000000012349876543210000011111FBLA           2017121820171220044445555                    
05201N00X2024682016000000012349876543210000011111FCCLA          2017121820171220044445555                    
05201N00X2024682016000000012349876543210000011111FFA            2017121820171220044445555                    
05201N00X2024682016000000012349876543210000011111HOSA           2017121820171220044445555                    
05201N00X2024682016000000012349876543210000011111SKILLSUSA      2017121820171220044445555                    
05201N00X2024682016000000012349876543210000011111TCA_JTG        2017121820171220044445555                    
05201N00X2024682016000000012349876543210000011111TSA            2017121820171220044445555                    
